:020000040800F2
:10000000C80F0020150200080F220008290F000861
:100010000B2200081F0300089F3A000800000000A0
:10002000000000000000000000000000552600084D
:10003000A509000800000000A122000841270008CF
:100040002F0200082F0200082F0200082F020008CC
:100050002F0200082F0200082F0200082F020008BC
:100060002F0200082F0200082F02000825030008B5
:10007000450300086503000895030008C503000850
:10008000E5030008050400082F0200082F020008FD
:100090002F0200082F0200082F0200082F0200087C
:1000A0002F0200082F0200082F0200082F0200086C
:1000B000852A0008FD2A00089D2C00082F02000850
:1000C0002F020008550F0008450F00082F020008F6
:1000D0002F0200080D3300082F020008C935000860
:1000E0002F0200082F0200082F0200082F0200082C
:1000F0002F0200082F0200082F0200082F0200081C
:100100002F0200082F020008E92D00082F02000826
:100110002F0200082F020008A12E0008712F0008EE
:100120002504000845040008690400088904000843
:1001300000F002F800F05EF80AA090E8000C82449B
:100140008344AAF10107DA4501D100F053F8AFF278
:10015000090EBAE80F0013F0010F18BFFB1A43F0A5
:1001600001031847AC580000CC58000010F8013BC0
:100170000A4413F0030408BF10F8014B1D1108BF17
:1001800010F8015B641E05D010F8016B641E01F8C5
:10019000016BF9D1002D15D010F8014B03F00C03C1
:1001A0000C2BA1EB04040ABF10F8013BA4EB831451
:1001B000A4EB032405F1010314F8016B5B1E01F8A5
:1001C000016BF9D5914238BF10F8013BD1D370478C
:1001D0000023002400250026103A28BF78C1FBD850
:1001E000520728BF30C148BF0B6070471FB51FBD05
:1001F00010B510BD00F05CF81146FFF7F7FF04F0F2
:1002000009F900F07AF803B4FFF7F2FF03BC00F03D
:100210007FF800000948804709480047FEE7FEE7ED
:10022000FEE7FEE7FEE7FEE7FEE7FEE7FEE7FEE7A6
:1002300004480549054A064B70470000ED270008B1
:1002400031010008C8090020C80F0020C80B002099
:10025000C80B0020002800DA404270474FF000022F
:1002600000B5134694469646203922BFA0E80C50AC
:10027000A0E80C50B1F12001BFF4F7AF090728BF87
:10028000A0E80C5048BF0CC05DF804EB890028BF03
:1002900040F8042B08BF704748BF20F8022B11F02C
:1002A000804F18BF00F8012B7047704770477047A8
:1002B000754600F029F8AE4605006946534620F021
:1002C0000700854618B020B5FFF7B2FFBDE8204013
:1002D0004FF000064FF000074FF000084FF0000B02
:1002E00021F00701AC46ACE8C009ACE8C009ACE8B5
:1002F000C009ACE8C0098D4670470446AFF30080E2
:100300002046FFF780FF0000004870476409002086
:1003100001491820ABBEFEE726000200704700BF6F
:10032000FEE7704710B50548006800F00F04034869
:1003300044602046FFF7F5FF10BD000000000240BA
:100340007047000010B505480068C0F30314200191
:10035000024948602046FFF7F3FF10BD000002404D
:100360007047000010B505480068C0F30324200260
:10037000024948602046FFF7F3FF10BD000002402D
:1003800010B504460249204601F0B2F810BD000045
:10039000B859000810B505480068C0F303342003BD
:1003A000024948602046FFF7EBFF10BD0000024005
:1003B00010B504460249204601F050F810BD000077
:1003C000B859000810B505480068C0F3034420047C
:1003D000024948602046FFF7EBFF10BD00000240D5
:1003E0007047000010B505480068C0F303542005AD
:1003F000024948602046FFF7F3FF10BD00000240AD
:100400007047000010B505480068C0F3036420067B
:10041000024948602046FFF7F3FF10BD000002408C
:100420007047000010B50548006800F00F0403484D
:10043000001D04602046FFF7F3FF10BD00040240DA
:100440007047000010B506480068C0F3031420018F
:100450000349091D08602046FFF7F2FF10BD0000A8
:10046000000402407047000010B506480068C0F361
:10047000032420020349091D08602046FFF7F2FF0C
:1004800010BD00000004024010B50C480068C0F325
:10049000033434B120030949091D0860204600F0E7
:1004A0000FF806480068C0F3034434B12004034940
:1004B000091D0860204600F004F810BD0004024049
:1004C0007047704770B505460C46012D02D0022DCD
:1004D00071D171E06A48406940F0010068494861A3
:1004E000082C60D2DFE804F05F04101C293643506A
:1004F0000020644988600F2048600B2003F0E0FA78
:100500000B2003F034FB4EE000205E49C861F02070
:1005100048600C2003F0D4FA0C2003F028FB42E0E2
:100520000020584908634FF4706048600D2003F0C4
:10053000C7FA0D2003F01BFB35E000205149486449
:100540004FF4704048600E2003F0BAFA0E2003F01A
:100550000EFB28E000204B4988654FF4702048606E
:100560000F2003F0ADFA0F2003F001FB1BE0002089
:100570004449C8664FF470004860102003F0A0FAA8
:10058000102003F0F4FA0EE000203E4980310860AC
:100590004FF070603B494860112003F091FA112040
:1005A00003F0E5FA00BF00BF0120A04036490978FA
:1005B00008433549087061E03148406940F0020065
:1005C0002F494861062C50D2DFE804F04F03101F7A
:1005D0002F3F00202D4908600F20091F0860382098
:1005E00003F06EFA382003F0C2FA3EE000202749FB
:1005F00014310860F0202549091F0860392003F0F4
:100600005FFA392003F0B3FA2FE000201F492831A8
:1006100008604FF470601D49091F08603A2003F01C
:100620004FFA3A2003F0A3FA1FE0002017493C31AB
:1006300008604FF470401549091F08603B2003F023
:100640003FFA3B2003F093FA0FE000200F495031AE
:1006500008604FF470200D49091F08603B2003F02B
:100660002FFA3B2003F083FA00BF00BF0120A04017
:100670000749097808430649087000BF00BF70BDEC
:100680000010024000000240100700200804024051
:100690001107002070B505460C46012D02D0022D31
:1006A0004ED14EE04F48007800B970BD082C37D2CB
:1006B000DFE804F036040B121920272E0B2003F07C
:1006C0002BFA0020484988602AE00C2003F024FA25
:1006D00000204549C86123E00D2003F01DFA0020E9
:1006E000414908631CE00E2003F016FA00203E4941
:1006F000486415E00F2003F00FFA00203A4988659E
:100700000EE0102003F008FA00203749C86607E021
:10071000112003F001FA002033498031086000BF46
:1007200000BF0120A0402F49097881432D48017066
:10073000007828B92D48406920F001002B49486114
:100740004CE02B48007800B9AFE7062C35D2DFE843
:1007500004F034030A121A27382003F0DDF90020D0
:100760002449086029E0392003F0D6F90020214906
:100770001431086021E03A2003F0CEF900201D4931
:100780002831086019E01A48007800F0200010B9FC
:100790003B2003F0C1F9002016493C3108600CE011
:1007A0001348007800F0100010B93B2003F0B4F9B2
:1007B000002010495031086000BF00BF0120A04058
:1007C0000B49097881430A480170007828B9074825
:1007D000406920F002000549486100BF00BF00BF2A
:1007E00063E70000100700200000024000100240F4
:1007F000110700200804024021B1026842F0010202
:10080000026004E002684FF6FE731A40026070470F
:1008100001684FF6FE7211400160002101604160E5
:100820008160C1604B49884208D14A49083949680A
:1008300041F00F01474A083A51608AE045491431B6
:10084000884208D143490839496841F0F001414ADA
:10085000083A51607DE03F492831884208D13D493E
:100860000839496841F470613A4A083A516070E0C9
:1008700038493C31884208D136490839496841F441
:100880007041344A083A516063E03249503188423D
:1008900008D130490839496841F470212D4A083A95
:1008A000516056E02B496431884208D12949083902
:1008B000496841F47001274A083A516049E02549E6
:1008C0007831884208D123490839496841F070617C
:1008D000204A083A51603CE01F49884206D1011F76
:1008E000096841F00F01021F116032E01A4914310A
:1008F000884208D11849091F096841F0F001164AD9
:10090000121F116025E014492831884208D112498C
:10091000091F096841F470610F4A121F116018E045
:100920000D493C31884208D10B49091F096841F43F
:100930007041094A121F11600BE00749503188428B
:1009400007D10549091F096841F47021024A121FA5
:1009500011607047080002400804024001464868E0
:1009600080B2704710B50022026847F6F0739A43D0
:100970000C6A8B6823430C6923434C6923438C69BD
:100980002343CC6923434C6A23438C6A23431A4391
:100990000260CB6843600B6883604B68C36010BD26
:1009A000416070477047000001B504490098086035
:1009B00000BF024800680028FBD108BDF8060020EF
:1009C0000549096821F01001034A116011460968C0
:1009D00001431160704700000020024001460020E2
:1009E000034A106800F038000843106070470000A8
:1009F0000020024018B5002844D0C0F34211C0F3D3
:100A00000322214B9B6903F001032BB91E4B9B6909
:100A100043F001031C4CA36100F48053A3B11B4BB2
:100A2000DB69009300F01F0301FA03F3009C9C4371
:100A3000009400F01F0302FA03F3009C2343009389
:100A4000124C009BE3611DE0104B5B68009300F0CB
:100A50001F0301FA03F3009C9C43009400F01F0362
:100A600002FA03F3009C2343009307210022009B1A
:100A700023EA01630093009B43EA02630093034C63
:100A8000009B636018BD00000010024000000140A0
:100A900001461D48814204D11C488069C0F3800092
:100AA00070471B48814204D118488069C0F3C000D8
:100AB000F6E71848814204D114488069C0F3001059
:100AC000EEE71548814204D110488069C0F3401018
:100AD000E6E71248814204D10C488069C0F38010D7
:100AE000DEE70F48814204D108488069C0F3C01096
:100AF000D6E70C48814204D104488069C0F3002045
:100B0000CEE70020CCE700000008014000100240C2
:100B1000000C014000100140001401400018014089
:100B2000001C0140002001402DE9F0410246002553
:100B30000026002000230024002791F803C00CF0B9
:100B40000F0591F803C00CF0100CBCF1000F03D09E
:100B500091F802C04CEA050591F800C0BCF1000F05
:100B600031D0146800202BE04FF0010C0CFA00F398
:100B7000B1F800C00CEA03069E4220D183004FF07A
:100B80000F0C0CFA03F7BC4305FA03FC4CEA04040F
:100B900091F803C0BCF1280F06D14FF0010C0CFAFC
:100BA00000FCC2F814C00AE091F803C0BCF1480F81
:100BB00005D14FF0010C0CFA00FCC2F810C0401C2B
:100BC0000828D1D31460B1F800C0BCF1FF0F34DDA8
:100BD000546800202EE000F1080C4FF0010808FADC
:100BE0000CF3B1F800C00CEA03069E4221D1830049
:100BF0004FF00F0C0CFA03F7BC4305FA03FC4CEA68
:100C0000040491F803C0BCF1280F05D100F1080CD1
:100C100008FA0CF8C2F8148091F803C0BCF1480F30
:100C200007D100F1080C4FF0010808FA0CF8C2F8DF
:100C30001080401C0828CED35460BDE8F0812DE917
:100C4000F04105460C46174698460F2C02D9002065
:100C5000BDE8F0812846FFF71BFF18B9012128469F
:100C600000F072F8B8F1000F10D1022F05D1E8683A
:100C70000121A1408843E86008E0032F06D127F056
:100C80000107E8680121A1400843E860082C01D26F
:100C90002E4601E0083C2E1D3068A2000F21914035
:100CA0008843306048EA8700A100884031680843E3
:100CB00030600120CCE70000F0B50A460023002494
:100CC0000021002500F00046B6F1004F02D11D4E74
:100CD000F16901E01B4E7168C0F3034583B200F473
:100CE0004016B6F5401F08D121F07061154E7668A8
:100CF00026F07066134F7E6012E000F48016B6F5A1
:100D0000801F06D1032606FA05F4A14341F0706165
:100D100006E0460D360103FA06F6B14341F0706174
:100D200022B1460D360103FA06F6314300F00046C3
:100D3000B6F1004F02D1034EF16101E0014E716046
:100D4000F0BD000000000140002945D0454A904216
:100D500006D1454A926942F00402434B9A6180E011
:100D6000424A904206D1404A926942F008023E4B04
:100D70009A6176E03E4A904206D13B4A926942F03F
:100D80001002394B9A616CE03A4A904206D1364AD9
:100D9000926942F02002344B9A6162E0364A9042F6
:100DA00006D1314A926942F040022F4B9A6158E0D5
:100DB000324A904206D12C4A926942F080022A4B74
:100DC0009A614EE02E4A90424BD1274A926942F4F2
:100DD0008072254B9A6144E0224A904206D1224A11
:100DE000926922F00402204B9A613AE01F4A904235
:100DF00006D11D4A926922F008021B4B9A6130E02D
:100E00001B4A904206D1184A926922F01002164BF2
:100E10009A6126E0174A904206D1134A926922F05D
:100E20002002114B9A611CE0134A904206D10E4AEF
:100E3000926922F040020C4B9A6112E00F4A9042F4
:100E400006D1094A926922F08002074B9A6108E0B4
:100E50000B4A904205D1044A926922F48072024BF7
:100E60009A6170470008014000100240000C0140E8
:100E7000001001400014014000180140001C014016
:100E8000002001400246002093680B400BB1012076
:100E900000E0002070474161704701617047000029
:100EA00010B510211948FFF7EDFF194908800821F6
:100EB0001648FFF7E7FF174908804FF4006116480E
:100EC000FFF7E0FF154908804FF480511248FFF703
:100ED000D9FF134908804FF480610F48FFF7D2FF14
:100EE000104908800A48B0F900000C49B1F9001017
:100EF0000843074908800748B0F900000949B1F9DB
:100F0000001008430349088010BD0000000C014098
:100F1000EC060020EE06002000100140F006002044
:100F2000F2060020F406002000BFFEE770B504467C
:100F30000D46034A2946204600F086F870BD0000A1
:100F4000B859000810B5024800F0F7FA10BD0000CB
:100F5000B859000810B5024800F093FB10BD00001E
:100F6000B859000810B5024800F051FE10BD00004D
:100F7000B859000808B5024800F04DFE009008BDC1
:100F8000B859000810B504460249204600F047FE53
:100F900010BD0000B8590008F8B504460D461646C5
:100FA0001F4604483B46324629460090204600F042
:100FB00070FEF8BDB8590008F8B504460D4616464F
:100FC0001F4604483B46324629460090204600F022
:100FD000F9FEF8BDB859000810B50446024920468C
:100FE00000F080FF10BD0000B859000870B504463D
:100FF0000D46034A2946204601F034F870BD000032
:10100000B859000870B504460D46034A29462046E3
:1010100001F07BF870BD0000B859000810B5024817
:1010200001F0C0F810BD0000B85900080148006880
:1010300070470000A459000808B5024800680090F5
:1010400008BD0000A05900082DE9F74F0F461446CF
:10105000606A007E00F0020018B94FF0FF30BDE872
:10106000FE8F0098012806D0022825D003286ED0D4
:1010700004286DD175E107F4004030B12068008884
:1010800040F040002168088005E02068008820F0DA
:1010900040002168088040F2FF3000EA470040F439
:1010A000804007F4806111B14FF4004100E000215D
:1010B000084321680881B9E1DE4D012F02D0022FDB
:1010C00042D116E0DC48854202D96FF00300C6E742
:1010D000DA48854202D26FF00300C0E7D848B5FB7A
:1010E000F0F04FEA5008D748B5FBF0F000F1010BE3
:1010F0002FE0D148854202D96FF00300AFE7D24814
:10110000854202D26FF00300A9E7D04885420DD393
:10111000B5FBF0F100FB115040B9CD48B5FBF0F044
:101120001921B0FBF1F040F4404807E0C848B5FB96
:10113000F0F00321B0FBF1F040F40048C548B5FBE6
:10114000F0F000F1010B04E06FF0030087E728E006
:1011500069E100BF2068008820F001002168088054
:101160002068808820F03F0021688880B548B5FB62
:10117000F0F0216889880843216888802168A1F8F7
:101180001C802168A1F820B02068008840F0010090
:10119000216808802068008840F480602168088009
:1011A00044E12068008820F001002168088001F0F7
:1011B000CBFAA9480068A249B0FBF1F08508A18AE2
:1011C0000122E0681AB101238B40036107E001F1BD
:1011D00010034FF0010C0CFA03FCC0F810C000BF64
:1011E000E18A012220691AB101238B40036107E0E3
:1011F00001F110034FF0010C0CFA03FCC0F810C011
:1012000000BFA18A03230122E068FFF718FDE18AED
:10121000032301222069FFF712FD4FF0000A36E098
:10122000E18A20698268CA4002F0010202B131E01D
:10123000A18A0122E0681AB101238B40036107E013
:1012400001F110034FF0010C0CFA03FCC0F810C0C0
:1012500000BF002600E0761CAE42FCD3A18A00222B
:10126000E0681AB101238B40036107E001F110032C
:101270004FF0010C0CFA03FCC0F810C000BF0026B0
:1012800000E0761CAE42FCD30AF101008246BAF1BE
:10129000090FC5D300BFE18A20698268CA4002F005
:1012A000010900BFE18A002220691AB101238B40A5
:1012B000036107E001F110034FF0010C0CFA03FC8D
:1012C000C0F810C000BF002600E0761CAE42FCD380
:1012D000A18A0122E0681AB101238B40036107E073
:1012E00001F110034FF0010C0CFA03FCC0F810C020
:1012F00000BF002600E0761CAE42FCD3E18A01224A
:1013000020691AB101238B40036107E001F110034A
:101310004FF0010C0CFA03FCC0F810C000BFA18A0A
:1013200003231A46E068FFF78AFCE18A03231A4682
:101330002069FFF784FC2068008840F001002168E4
:101340000880606A006820B1606A01684FF48070AC
:101350008847B9F1000F01D0002080E64FF0FF3040
:101360007DE62068808820F460602168888060685D
:1013700080B1A06870B161680868016821F001015E
:10138000016000BFA1680868016821F001010160E7
:1013900000BF00BF2068008840F40070216808800A
:1013A0000020616A88600021606AC160606A016132
:1013B000606A8182606A8175606A406820F001001D
:1013C000616A4860606A406820F00200616A4860B3
:1013D000606A406820F00400616A4860606A4068A2
:1013E00020F00800616A4860606A406820F01000E0
:1013F000616A4860606A406820F02000616A486065
:101400002068008820F0010021680880206800889A
:1014100040F00100216808802068008840F4806066
:101420002168088002E04FF0FF3018E600BF00207E
:1014300015E600000051250280DE800280841E0037
:10144000A086010040420F0000093D0080969800F0
:10145000801A0600151605001407002070B5054611
:101460000C462068808820F40060216888806168CC
:101470000868016821F00101016000BF6168086827
:101480004168606A8068411A606AC1600021606AD0
:101490000161606A4068C0F3400040B3606A807DCB
:1014A00000F0010030B12068808820F400702168CD
:1014B000888009E0606A8068012805D0206800887B
:1014C00040F4007021680880606A406820F00100E4
:1014D000616A4860606A406820F00200616A4860A2
:1014E000606A006818B1606A01680120884770BDB1
:1014F00002460868808820F400600B6898808B683A
:101500001868036823F00103036000BF8B68186844
:101510004368486A8068C31A486AC3600023486AFF
:101520000361486A4068C0F3400028B1486A807D82
:1015300040F00803486A837570472DE9F04104467E
:101540002068868A0027002506F4004008B145F48B
:10155000004506F4804008B145F4804506F480500B
:1015600008B145F4805506F4006008B145F4006503
:1015700006F4806000B345F480652068008840F47C
:10158000007021680880606A406820F00100616A8C
:101590004860606A406820F00200616A486000218B
:1015A000606A0161606A81750127606A807D00F070
:1015B000040008B947F0100706F40070D0B145F4F4
:1015C0000075606A406820F00100616A4860606AE6
:1015D000406820F00200616A4860606A406820F05C
:1015E00010001030616A48600021606A0161606A21
:1015F0008175412706F48070C8B145F48075606A32
:10160000406820F020002030616A4860606A4068CD
:10161000C0F3400050B9606A406820F00100616A80
:1016200048600021606A0161606A81758127606895
:1016300080B1A06870B1A1680868016821F001015B
:10164000016000BF61680868016821F00101016064
:1016500000BF00BF2068808AA8432168888277B1D4
:10166000606A006858B1606AC068616A89688842C7
:1016700001D247F00207606A016838468847BDE832
:10168000F0812DE9F0470446606A00F10805206802
:10169000878A07F00100C0B1A88900F4806030B1EA
:1016A000A889062101EAE01040F0F00809E0287B53
:1016B00040064FEA1068606A4068C0F3800040EA64
:1016C00008082068A0F810809FE207F0080068B1C1
:1016D000287B21680882606A4068C0F38000002887
:1016E000F2D0A87B40F00200A8738EE207F002005F
:1016F000002869D0A87B00F00400D0B1606A40687F
:1017000020F00100616A48600126D5E90010884296
:1017100001D246F00206606A4068C0F3C00008B11A
:1017200046F02006606A006818B1606A01683046B9
:101730008847606A4068C0F3400000284DD0606A66
:101740004068C0F38000F0B32868012805D1206804
:10175000008820F48060216808802068808A2068E2
:10176000008BA87B00F0020050B1A87B20F00200A3
:10177000A8732068008840F48070216808807BE0AE
:10178000286801280BD1A87B00F00100002873D144
:101790002068008840F40070216808806CE02868A8
:1017A000022812D12068008820F480602168088017
:1017B0002068008840F4006021680880A87B40F021
:1017C0001000A87358E008E06CE02868032853D1A3
:1017D000A87B40F01000A8734EE02068B0F8189085
:1017E000606A4068C0F34000E8BB09F0100038B1FF
:1017F000606A406820F008000830616A486005E0CF
:10180000606A406820F00800616A486009F00400DE
:1018100030B1606A406820F00400616A486006E008
:10182000606A406820F00400001D616A486000267C
:10183000A86848B9606A4068C0F3800010B146F0FB
:10184000080601E046F00406606A4068C0F3C00084
:1018500008B146F0200646B1606A006828B1606AA7
:101860000168304600E007E08847606A406820F081
:101870000100401C616A4860A87B40F02400A87306
:10188000606840B1A06830B12068808840F4006092
:1018900021688880B9E12068808840F480602168F0
:1018A0008880B2E107F0100028B30020A860A87378
:1018B0002068008840F4806021680880606A406881
:1018C00020F00100616A48600126D5E900108842D5
:1018D00001D246F00206606A4068C0F3C00008B159
:1018E00046F02006606A00680028D3D0606A01686C
:1018F0003046884789E1A87B00F020000028C9D045
:10190000A87B00F0080090B3606A4068C0F3400014
:101910000028BFD0606A807D00F0010030B12068EF
:10192000808820F400702168888005E020680088A5
:1019300040F40070216808800020A860A87B20F097
:101940002000A873606A406820F00100616A486066
:10195000606A406820F00200616A4860606A00685E
:10196000002897D0606A0168012088474DE1FFE7B1
:1019700007F08000002870D0606A4068C0F3400023
:10198000C8B3A87B00F01000B0B307F00400002833
:1019900087D02068808820F4806021688880A87BB8
:1019A00000F0010030B12068808820F400702168C8
:1019B000888005E02068008840F400702168088075
:1019C0000020A860A87B20F02000A873606A40680F
:1019D00020F00100616A4860606A406820F00200FF
:1019E000616A4860606A00680028BFD0606A016868
:1019F0000120884709E111E0FFE7D5E90110405CCB
:101A0000216808826868401C6860D5E90010884237
:101A1000ACD1A87B40F01000A873F6E0A86830B9FC
:101A2000606A006818B1606A016804208847A86885
:101A300070B1D5E90110405C216808826868401CDB
:101A40006860D5E90010884290D10020A860DCE0F1
:101A5000FF2021680882D8E0FFE707F04000002857
:101A600084D0606A4068C0F3400000287DD0A87B25
:101A700000F01000E8B307F004000028BAD028688E
:101A8000022804D0D5E90001801E814248D1206897
:101A9000808820F4806021688880A87B00F00100A5
:101AA00030B12068808820F400702168888005E0CB
:101AB0002068008840F40070216808802068008A4F
:101AC000C1B26A68501C6860A86881542068008AA6
:101AD000C1B26A68501C6860A86881540020A86080
:101AE000A87B20F02000A873606A406820F0010005
:101AF00000E024E0616A4860606A406820F002000B
:101B0000616A48602068008820F4006021680880CD
:101B1000606A006850B3606A01680120884774E019
:101B20002068008820F48060216808802068008A8E
:101B3000C1B26A68501C6860A868815465E020687A
:101B4000008AC1B26A68501C6860A868815428681D
:101B500001282CD12068808820F48060216888804A
:101B6000A87B00F0010040B101E030E03BE02068DC
:101B7000808820F40070216888800020A860A87BFD
:101B800020F02000A873606A406820F00100616ABC
:101B90004860606A406820F00200616A4860606ADC
:101BA000006800B3606A0168012088472DE0D5E92C
:101BB0000001C01E814228D12068808820F4806006
:101BC00021688880A87B40F01000A8731DE0206881
:101BD000008A00F0FF08A86830B92068008820F467
:101BE00080602168088010E0D5E9001088420CD29E
:101BF000D5E9011000F801806868401C6860D5E9EB
:101C00000010884201D10020A860BDE8F08701469D
:101C1000486AC06870470146486A4068704770B5B6
:101C200005460C46606A007E00F0010008B1002005
:101C300070BD208BFEF7DEFE0121E068FFF784F81F
:101C4000A18A03231A46E068FEF7F9FF0121206903
:101C5000FFF77AF8E18A03231A462069FEF7EFFFBF
:101C6000606858B1A06848B1626851791079FEF790
:101C700029FCA26851791079FEF724FC1C21606AC6
:101C8000FEF7ECFA606A05600120616A08760020C0
:101C9000CEE72DE9F0410546069C01B11AB96FF077
:101CA0000400BDE8F08125F40440B0F5806F02D354
:101CB0006FF00400F5E7606A406800F0010010B1C1
:101CC0006FF00100EDE7606A807D00F0010030B93F
:101CD00000BF2068008B00F002000028F9D1606A84
:101CE000406820F00100401C666A7060606A4068CD
:101CF00020F00200801C666A7060606A406820F014
:101D00000400001D666A7060606A406820F0200070
:101D1000666A7060606A406820F01000666A7060F1
:101D2000606A82600026606AC660606A0161606AFB
:101D30008582606A86752BB1606A807D40F00106FD
:101D4000606A86752068008840F48060266830806C
:101D5000606818B3D4F804C0DCF800009CF806C032
:101D60004FF0000848EA0C3C4CF0800C0CF10206E5
:101D7000D4F800C00CF1100706608760C1604260B3
:101D800000BF66683068066846F00106066000BF5E
:101D90002068808840F480502668B0802068808861
:101DA00020F400702668B0802068008840F48070BD
:101DB000266830802068808840F400702668B080F3
:101DC00000206EE72DE9F0410546069C01B11AB9E5
:101DD0006FF00400BDE8F08125F40440B0F5806F99
:101DE00002D36FF00400F5E7606A406800F001007C
:101DF00010B16FF00100EDE7606A807D00F0010036
:101E000030B900BF2068008B00F002000028F9D133
:101E1000606A406820F00100401C666A7060606A79
:101E2000406820F00200801C666A7060606A40684A
:101E300020F00400666A7060606A406820F020004C
:101E4000666A7060606A406820F01000666A7060C0
:101E5000606A82600026606AC660606A0161606ACA
:101E60008582606A86752BB1606A807D40F00106CC
:101E7000606A8675A06800B3D4F808C0DCF800007A
:101E8000D4F804C09CF806C04FF0000848EA0C3CA7
:101E90004CF0900C0CF10207D4F800C00CF11006C5
:101EA00007608660C160426000BFA668306806684F
:101EB00046F00106066000BF00BF2068808820F45D
:101EC00000702668B0802068008840F48070266822
:101ED00030802068808840F400702668B080002040
:101EE00078E7000070B505460C4625B1012D57D0A6
:101EF000022D54D157E05A48C069216A0843584915
:101F0000C861002021680880606880B1A06870B155
:101F100061680868016821F00101016000BFA168E3
:101F20000868016821F00101016000BF00BF94F959
:101F30001C0001F0D3FD94F91D0001F0CFFD4848CD
:101F4000C069216A88434649C861606A406820F0D8
:101F50000100616A4860606A406820F00200616ABE
:101F60004860606A406820F00400616A4860606A06
:101F7000406820F00800616A4860606A406820F0AC
:101F80001000616A4860606A406820F02000616A61
:101F90004860606A007E20F00200616A08765CE0BA
:101FA0006FF0030070BD606A007E00F0010010B9A0
:101FB0004FF0FF30F6E7606A007E00F0020008B1E3
:101FC0000020EFE72648C069216A08432449C86118
:101FD00094F91C0001F066FD94F91D0001F062FD0A
:101FE00094F91C0001F0B6FD94F91D0001F0B2FD5A
:101FF0001B480069216A08431949086100BF00BFF6
:1020000000BF00BF16480069216A8843144908616F
:102010002068808840F4407021688880206880882B
:1020200020F48060216888802068008820F080008B
:10203000216808802068008840F00100216808803D
:102040002068008840F4806021680880606A007E13
:1020500040F00200616A087600BF00BF0020A1E7DF
:1020600000100240F0B5034603B111B96FF004004F
:10207000F0BD506A406800F0010010B16FF001003F
:10208000F6E7506A406820F02000546A6060506AA9
:10209000406820F00800546A6060506A8160002443
:1020A000506AC460506A0361506A84751068808801
:1020B00040F480501468A0805068C0B15668306801
:1020C000B679002747EA063646F08006B41C166843
:1020D00006F1100504608560C360416000BF54686C
:1020E0002068046844F00104046000BF00BF106869
:1020F000008840F48060146820801068808840F474
:1021000000701468A0800020B2E7F0B5034603B168
:1021100011B96FF00400F0BD506A406800F0010092
:1021200010B16FF00100F6E7506A406820F020001F
:10213000546A6060506A406820F00800546A606029
:10214000506A81600024506AC460506A0361506A1A
:1021500084759068C0B196683068B679002747EA00
:10216000063646F09006B41C166806F110050460A9
:102170008560C360416000BF94682068046844F0D3
:102180000104046000BF00BF1068008840F4806054
:10219000146820801068808840F400701468A08063
:1021A0000020B8E710B50446A18A02230022E068A7
:1021B000FEF745FDE18A022300222069FEF73FFD7C
:1021C0002120FEF717FC606858B1A06848B162682A
:1021D00051791079FEF75EFAA26851791079FEF70D
:1021E00059FA0020616A087610BD70B505460C46A4
:1021F00000212846FEF700FBA1B22846FEF7D0FBDF
:1022000001212846FEF7F8FA70BD00BFFEE77047CF
:1022100070B5002100230F22C47804B3154C246844
:1022200004F4E064C4F5E064210AC1F10403CA4087
:10223000447804FA03F184781440214309010E4CD8
:102240000678A155047804F01F050124AC400578F8
:102250006D11AD0005F1E025C5F8004109E00478F5
:1022600004F01F050124AC40044D0678761145F8B2
:10227000264070BD0CED00E000E400E080E100E0ED
:1022800002490143024A1160704700000000FA054C
:102290000CED00E010B500F09BF900F002F810BD65
:1022A000704710B500F0D2FA10BD000029B1064AFF
:1022B00052690243044B5A6104E0034A5269824363
:1022C000014B5A61704700000010024029B1064AD4
:1022D000D2690243044BDA6104E0034AD2698243C3
:1022E000014BDA61704700000010024029B1064A34
:1022F00012690243044B1A6104E0034A12698243E3
:10230000014B1A61704700000010024029B1064AD3
:1023100092690243044B9A6104E0034A9269824342
:10232000014B9A61704700000010024029B1064A33
:10233000D2680243044BDA6004E0034AD268824365
:10234000014BDA6070470000001002400149C86488
:1023500070470000000042420F48006840F0010052
:102360000D490860084640680C4908400A49486021
:10237000084600680A49084007490860084600689E
:1023800020F4802008600846406820F4FE00486081
:102390004FF41F0088607047001002400000FFF8F3
:1023A000FFFFF6FE30B500210022002400232D4D52
:1023B0006D6805F00C0121B1042905D0082923D14D
:1023C00005E0294D056022E0274D05601FE0254D01
:1023D0006D6805F47012234D6D6805F48034022594
:1023E00005EB92421CB9214D554305600BE01D4D94
:1023F0006D6805F400351DB11C4D5543056002E0C4
:10240000194D5543056002E0174D056000BF00BF40
:10241000144D6D6805F0F0010909154D6B5C0568F8
:10242000DD4045600F4D6D6805F4E061090A104D0F
:102430006B5C4568DD4085600A4D6D6805F4605150
:10244000C90A0B4D6B5C4568DD40C560054D6D6884
:1024500005F44041890B074D6B5CC568B5FBF3F58E
:10246000056130BD0010024000127A0000093D00F5
:10247000FC0600200C07002010B5014600220023B6
:1024800000204A11012A02D1094C236806E0022AE1
:1024900002D1074C236A01E0054C636A01F01F0278
:1024A000012494401C400CB1012000E0002010BD2C
:1024B000001002400248406800F00C007047000025
:1024C0000010024001460020034A506820F0F0004E
:1024D000084350607047000000100240114909682D
:1024E00021F480310F4A11601146096821F48021DE
:1024F0001160B0F5803F03D0B0F5802F0ED106E01B
:102500000849096841F48031064A116007E005492D
:10251000096841F4A021034A116000E000BF00BF38
:10252000704700000010024001460020034A506836
:1025300020F4E06008435060704700000010024043
:1025400001460020034A506820F4605040EAC10070
:102550005060704700100240014908667047000053
:102560000000424202460020044B586820F47C10D0
:1025700042EA01031843014B5860704700100240C3
:1025800001460020034A506820F0030008435060D1
:10259000704700000010024038B500200090002471
:1025A000002500BF3120FFF767FF05460098401C5B
:1025B00000900098B0F5A06F01D0002DF2D031202E
:1025C000FFF75AFF08B1012400E00024204638BD7F
:1025D00010B5FFF7C1FE4FF48030FFF77FFFFFF724
:1025E000DBFF0446012C24D11020FEF7E9F902207C
:1025F000FEF7F4F90020FFF765FF0020FFF7A0FFCA
:10260000A002FFF791FF4FF4E0112004FFF7AAFFAB
:102610000120FFF7A1FF00BF3920FFF72DFF0028A1
:10262000FAD00220FFF7ACFF00BFFFF743FF0828F6
:10263000FBD10120FFF78AFE0548FFF7B3FE012119
:102640000846FFF763FE01213C20FFF75FFE10BD47
:1026500034090020704710B500F002F810BD0000EA
:102660000CB50020019000903348006840F48030A1
:102670003149086000BF3048006800F40030009025
:102680000198401C0190009818B90198B0F5A06F0E
:10269000F1D12948006800F4003010B10120009009
:1026A00001E0002000900098012843D123480068F1
:1026B00040F01000214908600846006820F003003F
:1026C00008600846006840F0020008601A48406848
:1026D000194948600846406848600846406840F428
:1026E000806048600846406820F47C1048600846D6
:1026F000406840F4E81048600846006840F0807088
:10270000086000BF0C48006800F000700028F9D095
:102710000948406820F003000749486008464068BF
:1027200040F00200486000BF0348406800F00C0021
:102730000828F9D10CBD0000001002400020024022
:1027400010B500F0D7FD10BD10B50021002000220B
:10275000214B5B6803F00C0121B1042906D0082944
:1027600028D107E01D4B1E4C236027E01B4B1C4C5F
:10277000236023E0184B5B6803F47010164B5B6812
:1027800003F48032022303EB904022B9154B4343FC
:10279000134C23600DE0104B5B6803F4003323B14E
:1027A000104B43430E4C236003E00C4B43430C4C53
:1027B000236003E0094B0A4C236000BF00BF064BB7
:1027C0005B68C3F30313084CE15C054B1B68CB400B
:1027D000034C236010BD00000010024000127A007C
:1027E0001407002000093D001807002010B5134809
:1027F000006840F00100114908600846406810492F
:1028000008400E494860084600680E4908400B49D8
:1028100008600846006820F4802008600846406888
:1028200020F4FE0048604FF41F008860FFF713FF9C
:102830004FF000600449086010BD00000010024025
:102840000000FFF8FFFFF6FE08ED00E010B50521DF
:10285000881F01F099F90F4840680F49B0FBF1F467
:10286000601EB0F1807F01D301200FE0601E4FF0A9
:10287000E02148610F214FF0FF3001F085F9002081
:102880004FF0E021886107200861002008B100BFF7
:10289000FEE710BD3409002040420F00F0B50C46A1
:1028A000154600220021068C4FF6FE773E40068436
:1028B000028B018C4FF60C7632407E1C06EA031622
:1028C0002E433243104EB0420ED0104EB0420BD0C9
:1028D000B0F1804F08D00E4EB04205D00D4EB04240
:1028E00002D00D4EB04206D14FF6FD76314044F095
:1028F0000106314305E04FF6F576314044F001061C
:10290000314302830184F0BD002C014000340140BA
:102910000004004000080040000C0040F0B50C46E8
:102920001546002200210026078C4FF6EF7C07EAAF
:102930000C070784028B018C4FF6FF7707EA041619
:1029400040F6FF473A404FF6FF7707EA03373A432E
:102950004FF6FF7707EA05273A43114FB8420ED0EA
:10296000104FB8420BD0B0F1804F08D00E4FB84294
:1029700005D00E4FB84202D00D4FB84206D14FF6E7
:10298000DF77394046F01007394305E04FF65F77AF
:10299000394044F01007394302830184F0BD000040
:1029A000002C0140003401400004004000080040B9
:1029B000000C004030B589B005460C4601210846A0
:1029C000FFF784FC01210420FFF7A0FC0220ADF8F2
:1029D000200004208DF8230003208DF8220008A990
:1029E0002748FEF7A1F8ADF81850ADF814400020C4
:1029F000ADF81A00ADF8160005A94FF0804000F0C0
:102A000027FC1C208DF8040001208DF80500022011
:102A10008DF8060001208DF8070001A8FFF7F8FBEC
:102A20000420ADF808000020ADF80A000120ADF840
:102A30000C000020ADF80E00ADF8100002A94FF018
:102A4000804000F090FB60214FF0804000F0C9FB17
:102A50000421080700F0D7FB8021C80500F0CAFB5D
:102A60000121880700F098FA01220521880700F06B
:102A7000B3FA0421080700F089FA09B030BD00005C
:102A80000008014010B50421080700F094FA01285D
:102A900017D100BF800700F08BFA0446B4F5487FD9
:102AA0000BD904EB4400C0001049B1FBF0F0104911
:102AB000086000200F4908600EE000200C49086003
:102AC0000AE00D480068401C0B49086000200849D6
:102AD00008600120074908600521880700F059FABD
:102AE00000214FF0804000F09BFB10BD00A24A0483
:102AF000140600207C0600208006002010B501216D
:102B0000044800F058FA18B10121024800F041FAD7
:102B100010BD00000004004030B589B005460C46E9
:102B200001210220FFF7D2FB01210520FFF7EEFB78
:102B300001211020FFF7EAFB0F20ADF82000102044
:102B40008DF8230003208DF8220008A91D48FDF709
:102B5000EBFFC020ADF81C0018208DF81F000320EB
:102B60008DF81E0007A91848FDF7DEFFADF81450D8
:102B7000ADF810400020ADF81600ADF8120004A921
:102B8000124800F065FB6020ADF800000120ADF8B0
:102B900002000020ADF8080069460C4800F026FA53
:102BA00069460A4800F080FA0821084800F073FAE4
:102BB0000821064800F0CAFA0121044800F0ECF9A7
:102BC00009B030BD00100140000801400004004081
:102BD00030B589B005460C4601210420FFF776FB8D
:102BE00001210820FFF792FBC020ADF8200004204F
:102BF0008DF8230003208DF8220008A92548FDF751
:102C000093FFADF81850ADF814400020ADF81A004D
:102C1000ADF8160005A9204800F01AFB1E208DF81B
:102C2000040001208DF8050002208DF80600012027
:102C30008DF8070001A8FFF7EBFA0420ADF80800B3
:102C40000020ADF80A000120ADF80C000020ADF81E
:102C50000E00ADF8100002A90F4800F084FA6021C0
:102C60000D4800F0BEFA04210B4800F0CCFA802198
:102C7000094800F0BFFA0121074800F08DF9012250
:102C80000521054800F0A8F90421034800F07EF969
:102C900009B030BD000C01400008004010B504210F
:102CA000164800F088F9012818D100BF134800F039
:102CB0007FF904461248006812490860B4F5487F5D
:102CC00008D904EB4400C0000F49B1FBF0F00F49F4
:102CD000086009E000200D49086005E000200B496C
:102CE000086001200A4908600521044800F051F9F4
:102CF0000021024800F094FA10BD000000080040D6
:102D0000240600202806002000A24A0418060020FD
:102D10007806002030B589B005460C460121082010
:102D2000FFF7D4FA01210420FFF7F0FA0120ADF8F3
:102D3000200004208DF8230003208DF8220008A92C
:102D40002648FDF7F1FEADF81850ADF8144000200C
:102D5000ADF81A00ADF8160005A9214800F078FA80
:102D600032208DF8040001208DF8050002208DF836
:102D7000060001208DF8070001A8FFF749FA00209E
:102D8000ADF80800ADF80A00164908600120ADF85A
:102D90000C000020ADF80E00ADF8100002A910489C
:102DA00000F0E1F950210E4800F01BFA04210C4814
:102DB00000F029FA80210A4800F01CFA0121084895
:102DC00000F0EAF801220321054800F005F902218C
:102DD000034800F0DBF809B030BD000000080140F6
:102DE000000C00402406002010B502210F4800F01E
:102DF000E2F8012815D102210C4800F0CAF80C486D
:102E0000006838B10021094800F03CF90020084969
:102E1000086006E00221054800F034F90120044969
:102E200008600121014800F0B4F810BD000C00401A
:102E3000240600201FB501211020FFF747FA40F2B9
:102E4000E730ADF8080040F2CF20ADF804000020D4
:102E5000ADF80A00ADF8060001A9104800F0F8F935
:102E6000012211460D4800F0B7F801210B4800F08F
:102E700093F84FF4A060FFF703FA36208DF80000B6
:102E800001208DF8010003208DF8020001208DF84B
:102E900003006846FFF7BCF91FBD000000100040AA
:102EA00010B50121274800F086F8002848D00121FC
:102EB000244800F06EF80021224800F06DF8224806
:102EC000008830B92148008818B1214800880128BD
:102ED00001D0012000E0002002461E4801681E4883
:102EE000006801F03FFF1C480468002C01DB20460D
:102EF00000E0604201461948006801F0D9F9154820
:102F00000468002C01DB204600E0604201461448C2
:102F1000006801F019FE1348008881B2124800F0E1
:102F20007BF91248008881B20F4800F077F9FDF76D
:102F3000B7FF0020034988840121024800F02CF8E3
:102F400010BD0000001000402C060020CC06002020
:102F5000B60600201C0600202006002018060020CF
:102F6000140600204C0600200004004070060020DB
:102F700010B50121044800F01EF818B101210248E3
:102F800000F007F810BD000000140040CA430282A0
:102F90007047CA430282704721B1028842F00102A1
:102FA000028004E002884FF6FE731A4002807047E8
:102FB0000146088F704730B50246002000230024E8
:102FC000158A05EA0103958905EA010413B10CB1DC
:102FD000012000E0002030BD1AB183890B438381BA
:102FE00002E083898B4383817047000070B5002421
:102FF00000220023058C4FF6FE7635400584028CB6
:103000008388048B4FF68F752C40B51E2C400D889D
:103010002C43751E2A400D892A434D882A43144D9E
:10302000A8420BD0134DA84208D0134DA84205D09A
:10303000124DA84202D0124DA84213D14FF6F77597
:103040002A404D892A434FF6FB752A408D882A4332
:103050004FF6FF652B404FF6FF552B408D892B43D4
:10306000CD892B4383800483CD888586028470BDFF
:10307000002C014000340140004001400044014068
:10308000004801400A460021018C4FF6FD731940AB
:103090001143018470470A460021018B4FF6F773F4
:1030A000194011430183704770B5002400220023AA
:1030B000058C4FF6EF7635400584028C8388048BAF
:1030C00048F6FF752C404FF6FF452C400D884FF613
:1030D000FF7606EA05252C434FF6DF752A400D8959
:1030E00006EA05152A434D8806EA05152A43154DBB
:1030F000A84202D0144DA8421DD14FF67F752A4038
:103100004D894FF6FF7606EA05152A434FF6BF753F
:103110002A408D8806EA05152A434FF6FF352B40D5
:103120004FF2FF752B408D8906EA85052B43CD892B
:1031300006EA85052B4383800483CD8805870284B6
:1031400070BD0000002C0140003401400A460021FF
:10315000018B4FF2FF7319404FF6FF7303EA02230E
:103160001943018370472DE9F04105460C460026BE
:103170000127608808B9022600E00026A0880128FF
:1031800001D1022700E001272088A0B92389A28865
:1031900061882846FFF782FBE188284600F042F864
:1031A00023893A4631462846FFF7B8FBE18828468E
:1031B00000F041F813E02389A28861882846FFF7D0
:1031C000ADFBE188284600F036F823893A463146BF
:1031D0002846FFF763FBE188284600F023F8BDE8A6
:1031E000F0810A46002101894FF68F73194011437F
:1031F0000181704702894FF67F731A40028102896C
:103200000A430281704702894FF6F8731A4002811F
:1032100002890A430281704781867047018770479F
:1032200081847047028B4FF6F3731A400283028B3E
:103230000A4302837047028B4FF2FF331A40028326
:10324000028B4FF6FF7303EA01231A430283704790
:10325000002202881D4B98420ED01D4B98420BD085
:10326000B0F1804F08D01B4B984205D01A4B9842C2
:1032700002D01A4B984204D14FF68F731A404B88F4
:103280001A43174B984207D0164B984204D04FF67A
:10329000FF431A40CB881A4302808B8883850B88B2
:1032A00003850A4B98420BD0094B984208D00E4B2D
:1032B000984205D00D4B984202D00D4B984201D157
:1032C0000B7A03860123838270470000002C0140A3
:1032D000003401400004004000080040000C0040A1
:1032E0000010004000140040004001400044014034
:1032F000004801400448006820B103480068401EAF
:103300000149086070470000F806002070B540F2DF
:1033100024411D4800F0FFFA002834D01A4800F07C
:10332000B5FB1A48FDF71AFBC0F5967018490860FE
:10333000002518E017494819072217A100F038FCAA
:1033400080B1012017490880002406E028190830C0
:103350001049085C14490855641C402CF6DB00F049
:1033600035FC04E06D1C0A4800688542E2DB00BFC2
:1033700040F22441044800F04EFA4FF4967103489D
:10338000FEF733FF00BF70BD003801405800024017
:10339000A4060020D60700202B4950442C36343A8E
:1033A00000000000CC0600202807002000B591B0E6
:1033B00001210846FEF77AFF01218803FEF7A6FFE8
:1033C00001210520FEF7A2FF4FF40070ADF8400088
:1033D00018208DF8430003208DF8420010A93748CB
:1033E000FDF7A2FB4FF48060ADF8400004208DF89B
:1033F000430003208DF8420010A93048FDF794FBEC
:103400002F4800F02DFA01218803FEF77FFF4FF4CB
:10341000E1300C900020ADF83400ADF83600ADF886
:103420003800ADF83C000C20ADF83A000CA9244857
:1034300000F0C0FA25208DF82C0001208DF82D0019
:103440008DF82E008DF82F000BA8FEF7E1FE0CA9D9
:103450001B4800F0AFFA012240F22441184800F066
:1034600084FA01224021164800F0F0F901211448A5
:1034700000F0E0F91348FDF7CBF91148001D00906A
:1034800011480190002002904FF4967003900020A4
:1034900004908020059000200690079008904FF43B
:1034A0008050099000200A9069460648FDF75AFAB4
:1034B00001210448FDF7A0F911B000BD000801404A
:1034C0000038014058000240D607002010B50446DD
:1034D0002146054800F0DFFA00BF8021024800F0D5
:1034E0000DFA0128F9D110BD0038014010B504468D
:1034F00003E02078FFF7EAFF641C20780028F8D169
:1035000010BD000000B585B001210520FEF7FEFECC
:103510000420ADF8100018208DF8130003208DF85A
:10352000120004A91648FDF7FFFA0820ADF81000B4
:1035300004208DF8130003208DF8120004A9104810
:10354000FDF7F2FA01214804FEF7C0FE4FF4E13026
:1035500000900020ADF80400ADF80600ADF80800BA
:10356000ADF80C000C20ADF80A006946054800F0E3
:1035700021FA0121034800F05DF905B000BD00000B
:10358000000801400044004010B5044640210748AF
:1035900000F038F92146054800F07DFA00BF4021CF
:1035A000024800F0ABF90128F9D110BD00440040F9
:1035B00010B5044603E02078FFF7E6FF641C20788E
:1035C0000028F8D110BD00002DE9F0413C4800680A
:1035D00080F0004640F224413A4800F09CF900286F
:1035E0006BD0384800F052FA3748FDF7B7F9C0F110
:1035F000640036490860002450E03548005D5528D5
:103600004BD13349601C085C532846D1A01D095C8E
:103610002F4AE01D105C41EA0020B42100FB01F7B5
:10362000F91707EB5141C81301F0FAFF804629480A
:103630000168404601F06AFF05463146284602F01F
:1036400039F90746244902F003F90CD223492846E8
:1036500002F030F9054621491E48006802F02AF9B7
:103660001C49086014E02946304602F023F9074659
:10367000194902F0EDF80BD21849284601F046FF2F
:10368000054616491348006801F040FF11490860DB
:1036900085F000400A49086004E0641C0B4800689B
:1036A0008442AADB00BF40F22441064800F0B3F890
:1036B00064210548FEF799FD00BFBDE8F0810000D8
:1036C000D40600200048004030000240A006002040
:1036D0007207002098060020000096430000B443C3
:1036E00000B591B001210820FEF710FE01218804E9
:1036F000FEF7ECFD01210846FEF7D8FD4FF480608F
:10370000ADF8400018208DF8430003208DF84200EA
:1037100010A93848FDF708FA4FF40060ADF84000F2
:1037200004208DF8430003208DF8420010A9314891
:10373000FDF7FAF9304800F093F801218804FEF70C
:10374000E5FD4FF4E1300C900020ADF83400ADF809
:103750003600ADF83800ADF83C000C20ADF83A006A
:103760000CA9254800F026F927208DF82C0001200F
:103770008DF82D0000208DF82E0001208DF82F00EF
:103780000BA8FEF745FD0CA91B4800F013F9012218
:1037900040F22441184800F0E8F801224021164880
:1037A00000F054F80121144800F044F81348FDF7E4
:1037B0002FF81148001D0090114801900020029040
:1037C0006420039000200490802005900020069043
:1037D000079008904FF48050099000200A906946A5
:1037E0000648FDF7BFF801210448FDF705F811B0C0
:1037F00000BD0000000C01400048004030000240C5
:103800007207002001F40072B2F5007F00D100BF02
:10381000CA430280704710B50022002340F66A14A4
:10382000A14200D100BF0A1201249440A3B2DC439C
:10383000048010BD21B1828942F40052828104E0EB
:1038400082894DF6FF731A40828170471AB1838ACC
:103850000B43838202E0838A8B438382704700009C
:1038600010B504462048844209D101218803FEF79F
:103870005DFD00214FF48040FEF758FD32E01B480B
:10388000844209D101214804FEF730FD00214FF4A4
:103890000030FEF72BFD25E01548844209D10121B7
:1038A0008804FEF723FD00214FF48020FEF71EFD63
:1038B00018E01048844209D10121C804FEF716FD22
:1038C00000214FF40020FEF711FD0BE00A4884426E
:1038D00008D101210805FEF709FD00214FF48010F1
:1038E000FEF704FD10BD0000003801400044004018
:1038F00000480040004C00400050004002460020BC
:10390000B1F5007F00D100BF13880B400BB101203F
:1039100000E00020704770B5024600240023002517
:10392000002040F66A16B14200D100BFC1F3421533
:1039300001F01F03012606FA03F3012D02D1968937
:10394000334006E0022D02D1168A334001E0968A08
:1039500033400C12012606FA04F41688344013B1E1
:103960000CB1012000E0002070BDF0B5034600243A
:1039700000260025002040F66A17B94200D100BF9A
:103980001846C1F3421401F01F06012707FA06F595
:10399000012C01D10C3004E0022C01D1103000E0E8
:1039A00014301AB107682F43076002E00768AF437D
:1039B0000760F0BD2DE9F04786B005460E460024AD
:1039C000A24600BFA1460027B08900B100BF2F4624
:1039D0002C8A4CF6FF700440F08804432C82AC899A
:1039E0004EF6F3100440B0883189084371890843CA
:1039F0000443AC81AC8A4FF6FF400440B0890443D5
:103A0000AC8201A8FEF7CEFC1F48874202D1DDF848
:103A100010A001E0DDF80CA0A88900F4004040B13E
:103A20000AEBCA0000EB0A1031684900B0FBF1F85C
:103A300007E00AEBCA0000EB0A1031688900B0FB0E
:103A4000F1F86420B8FBF0F004012009642101FBC7
:103A50001089A88900F4004040B1322000EBC90071
:103A6000B0FBF1F000F00700044308E0322000EB67
:103A700009106421B0FBF1F000F00F0004432C8129
:103A800006B0BDE8F0870000003801400146888894
:103A9000C0F308007047C1F308028280704700BF7E
:103AA000FEE70000002807DB00F01F020121914023
:103AB000024A430942F823107047000080E200E008
:103AC000002807DB00F01F0201219140024A430950
:103AD00042F823107047000080E200E0002817DB66
:103AE00000F01F02012191400A4A430942F82310C5
:103AF00000BF00BF00BFBFF34F8F00BF00BF00BFBC
:103B000000BF00BF00BFBFF36F8F00BF00BF00BF8B
:103B10007047000080E100E0002817DB00F01F0282
:103B2000012191400A4A430942F8231000BF00BF17
:103B300000BFBFF34F8F00BF00BF00BF00BF00BF7B
:103B400000BFBFF36F8F00BF00BF00BF7047000012
:103B500080E100E0002809DB00F01F020121914014
:103B60004209920002F1E022C2F8001170470028D9
:103B700009DB00F01F02012191404209920002F18D
:103B8000E022C2F80011704710B5002804DB0A07D4
:103B9000130E054A135406E00A07140E034A00F0F8
:103BA0000F031B1FD45410BD00E400E018ED00E02B
:103BB00010B5034606E0985C8C5CA04201D0002062
:103BC00010BD521E002AF6DA0120F9E79F4800785E
:103BD00080119F4908809D4840789C49097801F0F0
:103BE0003F0140EA01209B49088098484079974965
:103BF000897801F0800140EA4100974908809348A4
:103C000080799249897801F0400140EA8100934926
:103C100008808E48C0798D49897801F0200140EAFA
:103C2000C1008F4908808948007A8849897801F065
:103C3000100140EA01108B4908808448407A8010C6
:103C4000894908808148407A00F00300874908804C
:103C50007E48807A800948807C48807AC0F30110D1
:103C600088807A48807AC0F38100C8807748807A5B
:103C700000F0030008817548C07A7449897801F022
:103C8000080140EA41107A4908807048C07B6F49BA
:103C9000C97801F0800140EA4100754948806B48CD
:103CA000C07C6A49C97801F0080140EA41107049B6
:103CB00088806648C07D6549097901F0800140EA45
:103CC00041006B49C8806148C07E6049097901F0B4
:103CD000080140EA4110664908815C48007B5B4965
:103CE000897801F0040140EA811062490880574850
:103CF000007C5649C97801F0400140EA81005D49E5
:103D000048805248007D5149C97801F0040140EAD9
:103D10008110584988804D48007E4C49097901F04E
:103D2000400140EA81005349C8804848007F474924
:103D3000097901F0040140EA81104E4908814348A5
:103D4000407B4249897801F0020140EAC1104A49AA
:103D500008803E48407C3D49C97801F0200140EA96
:103D6000C100454948803948407D3849C97801F04B
:103D7000020140EAC110404988803448407E3349FE
:103D8000097901F0200140EAC1003B49C8802F4871
:103D9000407F2E49097901F0020140EAC1103649FD
:103DA00008812A48807B2949897801F0010140EA8D
:103DB0000120324908802548807C2449C97801F0D7
:103DC000100140EA01102D4948802048807D1F499C
:103DD000C97801F0010140EA0120284988801B4888
:103DE000807E1A49097901F0100140EA0110234947
:103DF000C8801648807F1549097901F0010140EA21
:103E000001201E4908811148C07F1D4908800F48C4
:103E100090F820001B4908800C4890F823000B49BB
:103E200091F8211040EA012000B2174908800748A4
:103E300090F82400054991F8221040EA012000B2D0
:103E40001249088001201249088070472807002085
:103E5000B6060020B8060020BA060020BC060020E6
:103E6000BE060020C0060020C20600200209002075
:103E70000C09002016090020200900202A09002032
:103E8000C4060020C6060020C8060020CA0600207E
:103E9000B40600202DE9FE4FDFF81C92002587486C
:103EA0000068401C40B186488449096830F8110018
:103EB00010B1002083490860002439E0804830F9BF
:103EC00014008149B1F9001088422FD100207D49AA
:103ED00008607E4F37F914307D4F37F914207D4F3D
:103EE0003F68B7F900107C4F3F68B7F9000000F059
:103EF00003F94FF0FF3071490860744830F914003D
:103F00000A2190FBF1F0C0F11A0000EBC00000EBB9
:103F10004000724908446E4931F914100A2291FB9D
:103F2000F2F1405C6E490870BDE8FE8F601C04B27F
:103F30006C48B0F900008442C0DB002473E06048A4
:103F400030F8140000286CD1674830F91400B0F53F
:103F5000877F66DA654830F91400B0F5877F60DA4C
:103F6000614931F914105C4A1268B2F90020881ACC
:103F700001F056FB02905D4931F91410554A126860
:103F8000B2F90020881A01F04BFB0190029801F071
:103F900091FA0746FCF75EF98346019801F08AFA28
:103FA0000746FCF757F95844009001F039FB0646E4
:103FB0004E4830F914000A2190FBF1F0C0F11A00CC
:103FC00000EBC00000EB400044490844464931F989
:103FD00014100A2291FBF2F1405C432815D03B48B3
:103FE00030F914000A2190FBF1F0C0F11A0000EB47
:103FF000C00000EB400039490844354931F914103C
:1040000091FBF2F1405C432804D13949304601F07C
:104010007DFA06464946304601F01AFB01D2B14608
:104020002546601C04B22F48B0F90000844286DBAC
:1040300024480068E0B90120224908601F48056053
:104040002A4830F915000A2190FBF1F0C0F11A005E
:1040500000EBC00000EB400020490844224931F940
:1040600015100A2291FBF2F1405C1D4908705BE7D4
:104070002049484601F0ECFA1AD2BAF1780F17DD60
:104080001A4830F915000A2190FBF1F0C0F11A002E
:1040900000EBC00000EB400010490844124931F920
:1040A00015100A2291FBF2F1405C0D4908703BE7C4
:1040B0000B48007838E70000003C1C460C06002046
:1040C00002090020C8050020E00500202A09002080
:1040D00020090020E8050020E40500200000002061
:1040E000DD050020C20600200C0900201609002072
:1040F0000000FA4400004842F0B50446A61ACD1A62
:10410000002D01DB284600E06842002E01DB374627
:1041100000E077423844F0BD10B50446214602481D
:10412000007800F003F810BDDD05002030B5024630
:10413000002403E0934201D1012030BD2046641CDD
:104140000B5C002BF6D10020F7E7000010B54FF410
:104150007A701049086010490860104801F060F951
:104160000F4A1049484201F019F901200E49088010
:1041700042F2107001F054F900200B4908804FF40E
:104180007A700449086004490860084801F048F959
:1041900010BD00001C06002020060020E06735004E
:1041A0000000F04118FCFFFF2C06002080841E0058
:1041B0002DE9F043002400264FEAD078B0F1000C3E
:1041C00001DBE14601E0CCF100094846002507E0AB
:1041D0004FF0000C01F805C005F1010C0FFA8CF549
:1041E0000A2DF5DB40B94FF0300C81F800C04FF0DC
:1041F000000C81F801C03DE015E04FF00A0C90FB87
:10420000FCF90CFB190C0CF1300C01F806C04FF056
:104210000A0C90FBFCF006F1010C0FFA8CF604F18D
:10422000010C0FFA8CF40028E7D1B8F1000F07D089
:104230004FF02D0C01F806C004F1010C0FFA8CF4BC
:104240000022A4F1010C0FFA8CF30DE08F5C11F841
:1042500003C001F802C0CF5402F1010C0FFA8CF236
:10426000A3F1010C0FFA8CF39A42EFDB4FF0000C34
:1042700001F804C0BDE8F08310B50A48008840B9D1
:104280000948006801F0B0F90849086001200549B3
:1042900008800648006801F0C3F9044600F0A4FD58
:1042A00010BD000004060020D406002008060020EF
:1042B0002DE9F05F04460D46281B38490860084682
:1042C000006837490968401A364908603348006871
:1042D00033490968022202FB110033490968084486
:1042E000324908600846006801F09AF98146304971
:1042F00001F0E2F907462948006801F091F9834688
:104300004FF07C5101F0D8F981462648006801F051
:1043100087F983464FF07C5101F0CEF98246494639
:1043200001F0F4F88046394601F0F0F8064601F055
:104330005BF92049086008460068B0F5967F03DD08
:104340004FF49670086007E01A48006810F5967FF1
:1043500002DA1948174908601848006815490968C1
:1043600008441649086008460068322802DA3220FC
:10437000086008E011480068B0F57A7F03DB40F27E
:10438000E7300E490860064800680749086003489E
:10439000006803490860BDE8F09F00004006002067
:1043A00038060020440600203C0600204806002075
:1043B000CDCCCC3D50060020D4FEFFFF4C060020A3
:1043C00011480068B0F900000A2390FBF3F10F4890
:1043D0000068B0F9000090FBF3F21A2900DD1A2101
:1043E0001A2A00DD1A22002901DB002A01DA232023
:1043F0007047C2F11A0000EBC00000EB4000044B14
:104400001844405CF4E70000E4050020E8050020C3
:10441000D9020020FDF73EFF4FF4A060FDF730FF0A
:104420000121F948FCF748FCFFF76CF8F7A0FFF70B
:10443000BFF800F011FCF9A0FFF7BAF8FFF750F948
:10444000F9A0FFF7B5F842F21070FCF7ADFAFEF7ED
:10445000ADFF00F0EBFFF6A0FFF7AAF817214FF62B
:10446000FE70FEF7A7FA17214FF6FE70FEF7B0FBBD
:1044700042F21070FCF798FA472140F2E730FEF75D
:104480004BFB42F21070FCF78FFAFEF7D3FC4FF4AF
:104490007A70FCF789FAE9A0FFF78AF800F018FCB7
:1044A00017214FF6FE70FEF735FCE6A0FFF780F807
:1044B0000020E649086005E0E54800F0B1FFE5A00E
:1044C000FFF776F8FFF77CFF2328F5D0E748008850
:1044D0000028F1D0D6A0FFF76BF800BFE4480088B1
:1044E0000128FBD1E34800F09BFFFFF72FFE0024DB
:1044F00000BF42F2283094FBF0F100FB1140F8B904
:10450000DDA0FFF755F8DE48006801F06DF80546BC
:1045100000F006FBDBA0FFF74BF8DD48006800F079
:10452000FFFADCA0FFF744F8FFF74AFF054600F06A
:1045300001FBDBA0FFF73CF8DB48007800F0FAFA5B
:10454000DA48008838B9FFF73BFF0546D8A1FFF7E6
:10455000EDFD00287ED0FFF733FFD7490870FFF745
:1045600099FCD14908700120D4490860D2480078EC
:10457000672870D014DC59286ED008DC3C281FD086
:104580003E2819D0402823D04F2866D1E5E1602885
:104590001AD064287CD065287BD06628F5D17DE0D0
:1045A00068380E2859D2DFE800F0D258325842F36A
:1045B000A75858F25858F11A3E2000F0CFFE1EE2DC
:1045C0003C2000F0ABFE1AE22E2000F0B7FE16E20F
:1045D000BBA0FFF7A1FD08B100F0E6FC0FE2B24876
:1045E0000078442812D0B048007843280ED0AE4856
:1045F00000785A280AD0AC480078482806D0AA4843
:104600000078462802D0472000F098FEF7E1ADA0E0
:10461000FFF782FD38B1AD4A4FF4FA7140F2EE2057
:1046200000F0BCFE02E0542000F088FEE7E19E4866
:1046300000784D2818D09C480078502814D09A480B
:104640000078532810D0984800784E280CD096480F
:10465000007803E0DFE17FE16EE0CFE1542803D092
:10466000914800784A2802D100F09EFC15E08E485F
:10467000007848280ED1432000F01AFC944A4FF4E9
:104680007A71484200F08AFE5A2000F011FC04E0E2
:1046900082E050E0462000F051FEB0E18248007810
:1046A00044280FD08048007831280BD07E4800780D
:1046B000432807D07C4800785A2803D07A480078ED
:1046C000482802D100F070FC15E0774800784728B0
:1046D00007D075480078332803D0734800784F28F6
:1046E00006D17C4A4FF44871484200F057FE02E080
:1046F000512000F023FE82E16B480078542813D04B
:104700006948007853280FD0674800784F280BD0AD
:1047100065480078552807D063480078472803D0BB
:10472000614800784A2802D100F03EFC02E04520B2
:1047300000F004FE63E100BF5B480078482802D126
:1047400000F032FC02E04D2000F0F8FD57E1564841
:104750000078542813D05448007853280FD052487A
:1047600000784F280BD050480078552807D04E4885
:104770000078472803D04C4800784A2809D1564A87
:104780004FF44871484200F009FE04E0C1E002E144
:104790001EE000F009FC32E150A0FFF7BDFC10B1B3
:1047A00000F002FC13E04EA0FFF7B6FC60B14E4AE9
:1047B0004FF44871484200F0F1FD5A2000F0B6FB7A
:1047C000432000F0B3FB02E0482000F0D7FD16E1E3
:1047D00046A135480078FFF7A9FC18B14E2000F03B
:1047E000ADFD95E043A130480078FFF79FFC48B14C
:1047F000532000F05DFB414A4FF47A71484200F0CB
:10480000CDFD85E07CE00000000230000A2D2D2D5A
:104810002D2D2D2D2D2D2D0A0000000073656E739A
:104820006F7273206F6B0A006D7075206F6B0A00DA
:1048300077696669206F6B0A0000000054494D20BB
:104840004F4B0000414C4C204F4B0000C80500204E
:10485000A086010077616974696E6720666F7220B7
:10486000776966692E2E2E0A00000000CC06002013
:10487000B606002040420F000A416E676C653A00A0
:10488000D40600202C6C6566745F667265713A0010
:10489000180600200A6C6F636174653A000000001E
:1048A0002C646573743A0000DD050020F2060020D8
:1048B0003C3E604000000000DC050020D8050020E0
:1048C0005A480000454358590000000000000C42BF
:1048D0000000A0C2000020C200000CC246325100FD
:1048E000584D50534A000000000034C24E34455920
:1048F000000000004F553133470000000000B4C2F3
:1049000071A172480078FFF711FC08B100F04CFB70
:1049100075E06FA0FFF700FC18B14A2000F00EFD13
:1049200019E06DA169480078FFF700FC48B14F20FD
:1049300000F0BEFA6A4A4FF47A71484200F02EFD48
:1049400009E0624800784E2803D060480078452886
:1049500001D100F029FB52E000BF5C4800785528E7
:1049600002D100F0EBFC15E05EA158480078FFF79B
:10497000DDFB48B1522000F09BFA594A4FF47A719E
:10498000484200F00BFD05E058A0FFF7C5FB08B159
:1049900000F00AFB33E04D4800784C280BD04B4820
:1049A0000078462807D049480078442803D0474873
:1049B0000078432803D14C2000F0C0FC1DE04DA13D
:1049C00042480078FFF7B2FB48B1502000F070FA7F
:1049D000434A4FF47A71484200F0E0FC0DE03B4856
:1049E0000078552807D039480078472803D0374841
:1049F00000784F2801D100F0D7FA00E000BF00BFD7
:104A00003E480068012803D100203D49088053E05A
:104A10003C4800F005FD00BF3B48B0F900003B49B1
:104A2000B1F90010484010B9FFF726FC43E03648C2
:104A30000088F8B142F2107000F0F2FC33480088B0
:104A400000B139E000202E4908804FF496603049CB
:104A5000086040422F490860002404E04FF47A7057
:104A600000F0DEFC641C0A2C25DA284800880028A7
:104A7000F4D020E025480088E8B142F2107000F040
:104A8000CFFC2148008800B116E000201C490880B6
:104A900021481F49086040421E490860002404E084
:104AA0004FF47A7000F0BCFC641C0A2C03DA164840
:104AB00000880028F4D000BF601C184990FBF1F278
:104AC00001FB120415E500004C435800DD050020F1
:104AD0004A36354500000000524C5843460000005D
:104AE0000000B4C2504E3445590000004A365453B9
:104AF00000000000534A365400000000D805002092
:104B000004060020400D0300EC060020EE06002005
:104B1000200600201C06002050FBFFFF8096980016
:104B20003EB5044669462046FFF742FB6846FEF75D
:104B30003FFD3EBD10B5044602480470FEF738FD47
:104B400010BD0000100600202DE9F05F04460D4660
:104B5000281B384908600846006837490968401A28
:104B6000364908603348006833490968022202FB6D
:104B70001100334909680844324908600846006852
:104B800000F04EFD8146304900F096FD0746294869
:104B9000006800F045FD83464FF07C5100F08CFD2D
:104BA00081462648006800F03BFD83464FF07C516B
:104BB00000F082FD8246494600F0A8FC8046394656
:104BC00000F0A4FC064600F00FFD204908600846EE
:104BD0000068B0F5967F03DD4FF49670086007E03B
:104BE0001A48006810F5967F02DA194817490860DC
:104BF00018480068154909680844164908600846BD
:104C00000068322802DA3220086008E011480068A3
:104C1000B0F57A7F03DB40F2E7300E4908600648C2
:104C20000068074908600348006803490860BDE858
:104C3000F09F0000640600205C060020680600204B
:104C4000600600206C060020CDCCCC3D7406002010
:104C5000D4FEFFFF7006002008B501210820FDF7F3
:104C600055FB1820ADF8000028208DF80300032024
:104C70008DF8020069461348FBF756FF012110200A
:104C8000FDF744FB4FF4E050ADF8000028208DF80C
:104C9000030003208DF8020069460B48FBF744FF30
:104CA00001212020FDF732FB0420ADF80000282070
:104CB0008DF8030003208DF8020069460348FBF7D6
:104CC00033FF08BD000C01400010014000140140FA
:104CD00010B504211448FCF7D5F888B113481449DD
:104CE00008601448144908601448154908601548BC
:104CF000154908600120154908701549088011E020
:104D000014480B49086014480B49086013480C49C3
:104D1000086013480C49086000200C490870022004
:104D20000B49088010BD000000140140BA060020A5
:104D3000E4050020BC060020E8050020C406002091
:104D4000EC050020C8060020F0050020DE0500204C
:104D5000E0050020BE060020C0060020C606002098
:104D6000CA06002070B505460E46144644B1082117
:104D70001C48FCF790F804211A48FCF78CF812E064
:104D8000002D08DD04211748FCF787F80821154895
:104D9000FCF781F807E008211248FCF77EF80421AF
:104DA0001048FCF778F844B102210E48FCF773F87C
:104DB00001210C48FCF76FF812E0002E08DD0121FC
:104DC0000848FCF76AF802210648FCF764F807E097
:104DD00002210448FCF761F801210248FCF75BF866
:104DE00070BD00000010014070B504462A492046FD
:104DF00000F060FD054629480168284600F028FDBE
:104E00001AD22749204600F055FD0546234801687F
:104E1000284600F01DFD05D2224800684042224984
:104E2000086004E01F48006864381F4908601D4896
:104E300000681E4908602DE01749204600F066FB17
:104E4000054616480168284600F002FC1AD21449AB
:104E5000204600F05BFB054610480168284600F03C
:104E6000F7FB05D20F48006840421049086004E093
:104E70000C48006864380D4908600A4800680A490F
:104E8000086007E0074800680849086005480068AE
:104E90000549086070BD000000004040D4060020B5
:104EA0000000F041CC0500201C0600202006002058
:104EB0002DE9F04104461348056800261CE0304601
:104EC000761C642190FBF1F201FB120068B90EA080
:104ED000FEF76EFBFFF774FA0746FFF72BFE0FA0F5
:104EE000FEF766FB2046FFF725FE2846FFF77CFF0E
:104EF0004FF47A7000F094FAFFF762FAA042DED124
:104F0000BDE8F081D40600200A63757272656E7484
:104F100020706F736974696F6E3A00000A6C6F6F6E
:104F20006B696E6720666F723A0000002DE9F041F0
:104F300004461348056800261CE03046761C6421B0
:104F400090FBF1F201FB120068B90EA0FEF730FBF6
:104F5000FFF736FA0746FFF7EDFD0FA0FEF728FB37
:104F60002046FFF7E7FD2846FFF73EFF4FF47A7033
:104F700000F056FAFFF724FAA042DED0BDE8F08137
:104F8000D40600200A63757272656E7420706F73A8
:104F90006974696F6E3A00000A6C6F6F6B696E67B7
:104FA00020666F723A00000070B50D4804686FF01B
:104FB00063000C4908604FF47A700B49086003E005
:104FC00042F2107000F02CFA21460548006800F00B
:104FD00071FC0546054900F03BFCF1D370BD0000B3
:104FE000D4060020200600201C060020000034C348
:104FF0002DE9FC5F05460E4614461F464FF000099A
:10500000CB46CA4633480068019059E050460AF141
:10501000010A642190FBF1F201FB120068B92EA095
:10502000FEF7C6FAFFF7CCF90090FFF783FD2FA03B
:10503000FEF7BEFA3846FFF77DFD2088A8B9A9F132
:105040000100B0F1000910DA00202C4908804FF46B
:105050007A7028604FF4C870306003E04FF47A70C3
:1050600000F0DEF9208858BBF8E72088A8B10020BE
:1050700022490880224828604FF47A70306003E0AB
:105080004FF47A7000F0CCF920880028F8D111484C
:10509000006801904FF0010912E04FF47A7030601F
:1050A00028604FF0000805E04FF47A7000F0B8F97E
:1050B00008F10108B8F52F7F02DA20880028F3D024
:1050C000FFF77EF9B84203D0FFF77AF942289DD165
:1050D000BDE8FC9FD40600200A63757272656E7489
:1050E00020706F736974696F6E3A00000A6C6F6F9D
:1050F0006B696E6720666F723A000000040600203C
:105100007CFCFFFF2DE9FC5F05460E4614461F465A
:105110004FF00009CB46CA462F480068019055E081
:1051200050460AF1010A642190FBF1F201FB1200E2
:1051300068B92AA0FEF73CFAFFF742F90090FFF7A2
:10514000F9FC2BA0FEF734FA3846FFF7F3FC208871
:10515000A0B9A9F10100B0F100090FDA0020284937
:1051600008804FF47A702860C820306003E04FF464
:105170007A7000F055F9208840BBF8E7208890B19C
:1051800000201F4908801F4828604FF47A70306063
:1051900003E04FF47A7000F043F920880028F8D13A
:1051A0004FF0010912E04FF47A70306028604FF040
:1051B000000805E04FF47A7000F032F908F10108B8
:1051C000B8F52F7F02DA20880028F3D0FFF7F8F82F
:1051D000B842A5D0BDE8FC9FD40600200A637572D2
:1051E00072656E7420706F736974696F6E3A000037
:1051F0000A6C656176696E672066726F6D3A0000B1
:10520000040600207CFCFFFF2DE9FC5F05460E46EE
:1052100014461F464FF00009CB46CA463348006883
:10522000019059E050460AF1010A642190FBF1F225
:1052300001FB120068B92EA0FEF7BAF9FFF7C0F81B
:105240000090FFF777FC2FA0FEF7B2F93846FFF782
:1052500071FC2088A8B9A9F10100B0F1000910DAA9
:1052600000202C4908804FF4966028604FF4C870E5
:10527000306003E04FF47A7000F0D2F8208858BB19
:10528000F8E72088A8B10020224908802248286039
:105290004FF47A70306003E04FF47A7000F0C0F899
:1052A00020880028F8D11148006801904FF00109CA
:1052B00012E04FF47A70306028604FF0000805E08B
:1052C0004FF47A7000F0ACF808F10108B8F52F7FC0
:1052D00002DA20880028F3D0FFF772F8B84203D032
:1052E000FFF76EF842289DD1BDE8FC9FD406002050
:1052F0000A63757272656E7420706F736974696F7A
:105300006E3A00000A6C6F6F6B696E6720666F7291
:105310003A000000040600207CFCFFFF10B50446A4
:105320002346034A03490448FFF7ECFE10BD000082
:10533000EC060020200600201C06002010B50446C4
:105340002346034A03490448FFF752FE10BD0000FC
:10535000EE0600201C0600202006002010B50446A2
:105360002346034A03490448FFF7CCFE10BD000062
:10537000EE0600201C0600202006002010B5044682
:105380002346034A03490448FFF73EFF10BD0000CF
:10539000EE0600201C060020200600202DE9F0412A
:1053A00004460E4615461B4807681B4804601B4808
:1053B00006600021284600F04BFA0FD203E042F2CB
:1053C000107000F02DF839461248006800F072FAAB
:1053D0008046294600F03CF90FD2F0E703E042F2A4
:1053E000107000F01DF839460A48006800F062FAB3
:1053F0008046294600F02CFAF1D360420649086045
:105400006042064908604FF47A7000F009F8BDE880
:10541000F0810000D4060020200600201C06002099
:10542000002100E0491C8142FCDB704710B509A057
:10543000FEF75CF80F48FBF7B7FA0FA0FEF756F837
:105440000C48FBF7B1FA0CA0FEF750F81548FBF733
:10545000ABFA10BD41542B43574A41503D224544BD
:10546000433230222C223132333435363738220D54
:105470000A00000000093D0041542B434950535499
:105480004152543D22544350222C223139322E3184
:1054900036382E312E313234222C32303030300D2D
:1054A0000A00000040420F000808A0F500114FEA72
:1054B0003101704743004FEAD30C4FEA3C0C4340A4
:1054C0001FBF40070CF1605113F0FE4F70471CF0F6
:1054D000006F03D100200CF0004170470CF0004336
:1054E00043EA507010B540EACC0000F066F900BF06
:1054F000000000924FEA0001FFF7D6BF4FF00041D5
:105500004FF00000A1F500217047000090EA010F64
:1055100048BF81F0004100F1D481421A3CBF801A9B
:1055200089184FEAD0524FF07F4C1CEA410FA2EB92
:10553000D15318BF9CEA026F00F03B804FF0004C43
:105540004CEA00204CEA012121FA03FC10EB0C0C80
:105550001ED202F1FF325FEA1C2040EBC25038BF7E
:1055600070471CF07F0F4FEA400C18BFBCF17F4F13
:1055700038BF7047C3F12003994008BF20F00100F5
:10558000BCF17F4F38BF7047A0F1C04000F05BB95D
:105590004FEA3C00000A40EBC25028BF1CF0FF0F4E
:1055A0004FEA400CE6D018BFBCF17F4F38BF7047C0
:1055B000EAE79CEA026F05D010EA5C0F08BF00F032
:1055C0000040704710B500F0F8F800BF64FBBE3E25
:1055D000401058BFC0F14040491058BFC1F1404190
:1055E0008142EFF30080704741000B0ED3F19E0221
:1055F00008D950F400034FEA032323FA02F048BF0E
:105600004042704710B500F0D8F800BF499224809E
:10561000002070476FF0004282EA200070470000CF
:1056200010F0004148BF4042B0FA80F310FA03F294
:10563000C3F19D030BD051EAC35101EB1220530675
:1056400038BF704700F1010008BF20F0010070472B
:1056500050EA010C00F113801CF5000F58BFBCF597
:10566000000F01D48842704707D710F5000F58BFCC
:1056700011F5000F15D488427047894270471CF518
:10568000000F04D5BCF5000FF7D5814270474FF0ED
:10569000807C1CEB400F38BF1CEB410F01D28142D4
:1056A000704710B500F089F8922449004FF000507F
:1056B0004FF08051FFF78CBF4FF47F0C1CEAD012E3
:1056C0001EBF1CEAD11392EA0C0F93EA0C0F00F0F4
:1056D000478090EA010F48BF42F480724FF0004CBF
:1056E0004CEA00204CEA012102EB0302A0FB01136B
:1056F000A2F50002002918BF43F001035B0028BF98
:105700004FEA330342EB22425FEA132C4CEBC250C8
:105710002EBFBCEB436FB2F57C0F70474FEA036CB2
:10572000BCF1004F08BF20F00100B2F57C0F38BF7C
:1057300070470BD582F0FF0212F5803FC8BF70475B
:1057400000F1C040D8BF00F00040704700F5000CE9
:105750005FEA4C0C48BF7047B0F1C04000F073B82E
:1057600090EA010F0CEAD11348BF42F480726245FF
:1057700038BF634504D280EA010000F00040704762
:1057800010B500F01AF800BF8900013E00F007B81C
:1057900000F009B85FEA410C5FEA1C6C08D080EAAF
:1057A000010000F050B85FEA400C5FEA1C6CF6D1D3
:1057B0004FF00040A0F5800070470EF1020E2EF071
:1057C000030E5EF8044B244204D44FEA4102B2F1C6
:1057D0007F4F11D84FEA4003B3F17F4F0CD80ED161
:1057E0004FEAD07CB2F17F4F0CEB4C0C0CF1020C69
:1057F00008BF4CEBD17C04E04FF0080C01E04FEA0D
:10580000D17C0CEB4C0324FA03F404F00704B4F14C
:10581000040C06D20EEB840CBDE810404CF0010CD9
:105820006047DFE80CF0070802024FF00040A0F5E7
:10583000800010BD0846420018BFD2F1807288BFB8
:1058400000F0004010BDFF2141EAD050C005704774
:1058500051EA000C00F113801CF5000F58BFBCF595
:10586000000F01D48142704707D711F5000F58BFD0
:1058700010F5000F15D481427047894270471CF51E
:10588000000F04D5BCF5000FF7D5884270474FF0E4
:10589000807C1CEB410F38BF1CEB400F01D28842CB
:1058A000704780EA010081EA000180EA0100FFF709
:1058B000F8BE000090EA010F48BF81F000413FF5BB
:1058C0002CAE421A04D882F00042A0EB0200114430
:1058D0004FEAD0524FF07F4C1CEA410FA2EBD1535C
:1058E00018BF9CEA026F4AD04FF0004C4CEA0020EF
:1058F0004CEA012121FA03FCB0EB0C0C0FD412F09E
:10590000FE0F36D05FEA4C001DD5001240EBC250AE
:1059100038BF70471CF03F0F18BF70470BE0A2F173
:1059200001025FEA1C2040EBC25038BF70471CF0F8
:105930007F0F18BF7047C3F12003994014BF401E6A
:1059400020F00100704780084FEA122308BF70471B
:10595000B0FA80FCA2EB0C02CCF1280C60FA0CF03F
:1059600093EA122F04BF00EBC25070474FEAC37096
:105970007047130A5FEADC1008BF7047F6E79CEA3D
:10598000026F04D010EA5C0F08BF0020704710B50A
:10599000FFF713FF40DFF63E81F000407047000044
:1059A000030201020000000058000240010500004F
:1059B000440002400104000000580040A8590008BB
:1059C000B0590008000C0140000C01400A000B0017
:1059D00000000000212200000000400048090020D3
:1059E000391000082D100008850F00081D10000850
:1059F000D90F0008B90F0008990F0008051000081A
:105A0000ED0F0008650F00082D0F0008750F000846
:105A1000305A000800000020280700006C01000830
:105A2000905C000828070020A0080000D0010008B2
:105A3000334244017007313131333347012242018F
:105A40000213441B52471B22460160053232334287
:105A500001711B62461B0211551B112F6006323269
:105A60003255551C716C311B6005423251511C215D
:105A700050124A01611B6342511C118D2119911B67
:105A8000511C33554F1AA342421B413830044F4F2B
:105A90004F1AC11B7005425152521AD11B13425268
:105AA0001C3353531AE11B0008114C5252505353EC
:105AB000531B10064C4C5250501CF2541BD00C4C33
:105AC0004C4C50504E4E4E5454541B111A234D4DB5
:105AD0001B411C216C51F4311A124DC4511C11DCB4
